{
  "contractName": "SmartContract",
  "abi": [
    {
      "inputs": [
        {
          "internalType": "string",
          "name": "_name",
          "type": "string"
        },
        {
          "internalType": "string",
          "name": "_symbol",
          "type": "string"
        },
        {
          "internalType": "string",
          "name": "_initBaseURI",
          "type": "string"
        },
        {
          "internalType": "string",
          "name": "_initNotRevealedUri",
          "type": "string"
        }
      ],
      "stateMutability": "nonpayable",
      "type": "constructor"
    },
    {
      "anonymous": false,
      "inputs": [
        {
          "indexed": true,
          "internalType": "address",
          "name": "owner",
          "type": "address"
        },
        {
          "indexed": true,
          "internalType": "address",
          "name": "approved",
          "type": "address"
        },
        {
          "indexed": true,
          "internalType": "uint256",
          "name": "tokenId",
          "type": "uint256"
        }
      ],
      "name": "Approval",
      "type": "event"
    },
    {
      "anonymous": false,
      "inputs": [
        {
          "indexed": true,
          "internalType": "address",
          "name": "owner",
          "type": "address"
        },
        {
          "indexed": true,
          "internalType": "address",
          "name": "operator",
          "type": "address"
        },
        {
          "indexed": false,
          "internalType": "bool",
          "name": "approved",
          "type": "bool"
        }
      ],
      "name": "ApprovalForAll",
      "type": "event"
    },
    {
      "anonymous": false,
      "inputs": [
        {
          "indexed": true,
          "internalType": "address",
          "name": "previousOwner",
          "type": "address"
        },
        {
          "indexed": true,
          "internalType": "address",
          "name": "newOwner",
          "type": "address"
        }
      ],
      "name": "OwnershipTransferred",
      "type": "event"
    },
    {
      "anonymous": false,
      "inputs": [
        {
          "indexed": true,
          "internalType": "address",
          "name": "from",
          "type": "address"
        },
        {
          "indexed": true,
          "internalType": "address",
          "name": "to",
          "type": "address"
        },
        {
          "indexed": true,
          "internalType": "uint256",
          "name": "tokenId",
          "type": "uint256"
        }
      ],
      "name": "Transfer",
      "type": "event"
    },
    {
      "inputs": [
        {
          "internalType": "address",
          "name": "to",
          "type": "address"
        },
        {
          "internalType": "uint256",
          "name": "tokenId",
          "type": "uint256"
        }
      ],
      "name": "approve",
      "outputs": [],
      "stateMutability": "nonpayable",
      "type": "function"
    },
    {
      "inputs": [
        {
          "internalType": "address",
          "name": "owner",
          "type": "address"
        }
      ],
      "name": "balanceOf",
      "outputs": [
        {
          "internalType": "uint256",
          "name": "",
          "type": "uint256"
        }
      ],
      "stateMutability": "view",
      "type": "function"
    },
    {
      "inputs": [],
      "name": "baseExtension",
      "outputs": [
        {
          "internalType": "string",
          "name": "",
          "type": "string"
        }
      ],
      "stateMutability": "view",
      "type": "function"
    },
    {
      "inputs": [],
      "name": "baseURI",
      "outputs": [
        {
          "internalType": "string",
          "name": "",
          "type": "string"
        }
      ],
      "stateMutability": "view",
      "type": "function"
    },
    {
      "inputs": [],
      "name": "cost",
      "outputs": [
        {
          "internalType": "uint256",
          "name": "",
          "type": "uint256"
        }
      ],
      "stateMutability": "view",
      "type": "function"
    },
    {
      "inputs": [
        {
          "internalType": "uint256",
          "name": "tokenId",
          "type": "uint256"
        }
      ],
      "name": "getApproved",
      "outputs": [
        {
          "internalType": "address",
          "name": "",
          "type": "address"
        }
      ],
      "stateMutability": "view",
      "type": "function"
    },
    {
      "inputs": [
        {
          "internalType": "address",
          "name": "owner",
          "type": "address"
        },
        {
          "internalType": "address",
          "name": "operator",
          "type": "address"
        }
      ],
      "name": "isApprovedForAll",
      "outputs": [
        {
          "internalType": "bool",
          "name": "",
          "type": "bool"
        }
      ],
      "stateMutability": "view",
      "type": "function"
    },
    {
      "inputs": [],
      "name": "maxMintAmount",
      "outputs": [
        {
          "internalType": "uint256",
          "name": "",
          "type": "uint256"
        }
      ],
      "stateMutability": "view",
      "type": "function"
    },
    {
      "inputs": [],
      "name": "maxSupply",
      "outputs": [
        {
          "internalType": "uint256",
          "name": "",
          "type": "uint256"
        }
      ],
      "stateMutability": "view",
      "type": "function"
    },
    {
      "inputs": [],
      "name": "name",
      "outputs": [
        {
          "internalType": "string",
          "name": "",
          "type": "string"
        }
      ],
      "stateMutability": "view",
      "type": "function"
    },
    {
      "inputs": [],
      "name": "nftPerAddressLimit",
      "outputs": [
        {
          "internalType": "uint256",
          "name": "",
          "type": "uint256"
        }
      ],
      "stateMutability": "view",
      "type": "function"
    },
    {
      "inputs": [],
      "name": "notRevealedUri",
      "outputs": [
        {
          "internalType": "string",
          "name": "",
          "type": "string"
        }
      ],
      "stateMutability": "view",
      "type": "function"
    },
    {
      "inputs": [],
      "name": "onlyWhitelisted",
      "outputs": [
        {
          "internalType": "bool",
          "name": "",
          "type": "bool"
        }
      ],
      "stateMutability": "view",
      "type": "function"
    },
    {
      "inputs": [],
      "name": "owner",
      "outputs": [
        {
          "internalType": "address",
          "name": "",
          "type": "address"
        }
      ],
      "stateMutability": "view",
      "type": "function"
    },
    {
      "inputs": [
        {
          "internalType": "uint256",
          "name": "tokenId",
          "type": "uint256"
        }
      ],
      "name": "ownerOf",
      "outputs": [
        {
          "internalType": "address",
          "name": "",
          "type": "address"
        }
      ],
      "stateMutability": "view",
      "type": "function"
    },
    {
      "inputs": [],
      "name": "paused",
      "outputs": [
        {
          "internalType": "bool",
          "name": "",
          "type": "bool"
        }
      ],
      "stateMutability": "view",
      "type": "function"
    },
    {
      "inputs": [],
      "name": "renounceOwnership",
      "outputs": [],
      "stateMutability": "nonpayable",
      "type": "function"
    },
    {
      "inputs": [],
      "name": "revealed",
      "outputs": [
        {
          "internalType": "bool",
          "name": "",
          "type": "bool"
        }
      ],
      "stateMutability": "view",
      "type": "function"
    },
    {
      "inputs": [
        {
          "internalType": "address",
          "name": "from",
          "type": "address"
        },
        {
          "internalType": "address",
          "name": "to",
          "type": "address"
        },
        {
          "internalType": "uint256",
          "name": "tokenId",
          "type": "uint256"
        }
      ],
      "name": "safeTransferFrom",
      "outputs": [],
      "stateMutability": "nonpayable",
      "type": "function"
    },
    {
      "inputs": [
        {
          "internalType": "address",
          "name": "from",
          "type": "address"
        },
        {
          "internalType": "address",
          "name": "to",
          "type": "address"
        },
        {
          "internalType": "uint256",
          "name": "tokenId",
          "type": "uint256"
        },
        {
          "internalType": "bytes",
          "name": "_data",
          "type": "bytes"
        }
      ],
      "name": "safeTransferFrom",
      "outputs": [],
      "stateMutability": "nonpayable",
      "type": "function"
    },
    {
      "inputs": [
        {
          "internalType": "address",
          "name": "operator",
          "type": "address"
        },
        {
          "internalType": "bool",
          "name": "approved",
          "type": "bool"
        }
      ],
      "name": "setApprovalForAll",
      "outputs": [],
      "stateMutability": "nonpayable",
      "type": "function"
    },
    {
      "inputs": [
        {
          "internalType": "bytes4",
          "name": "interfaceId",
          "type": "bytes4"
        }
      ],
      "name": "supportsInterface",
      "outputs": [
        {
          "internalType": "bool",
          "name": "",
          "type": "bool"
        }
      ],
      "stateMutability": "view",
      "type": "function"
    },
    {
      "inputs": [],
      "name": "symbol",
      "outputs": [
        {
          "internalType": "string",
          "name": "",
          "type": "string"
        }
      ],
      "stateMutability": "view",
      "type": "function"
    },
    {
      "inputs": [
        {
          "internalType": "uint256",
          "name": "index",
          "type": "uint256"
        }
      ],
      "name": "tokenByIndex",
      "outputs": [
        {
          "internalType": "uint256",
          "name": "",
          "type": "uint256"
        }
      ],
      "stateMutability": "view",
      "type": "function"
    },
    {
      "inputs": [
        {
          "internalType": "address",
          "name": "owner",
          "type": "address"
        },
        {
          "internalType": "uint256",
          "name": "index",
          "type": "uint256"
        }
      ],
      "name": "tokenOfOwnerByIndex",
      "outputs": [
        {
          "internalType": "uint256",
          "name": "",
          "type": "uint256"
        }
      ],
      "stateMutability": "view",
      "type": "function"
    },
    {
      "inputs": [],
      "name": "totalSupply",
      "outputs": [
        {
          "internalType": "uint256",
          "name": "",
          "type": "uint256"
        }
      ],
      "stateMutability": "view",
      "type": "function"
    },
    {
      "inputs": [
        {
          "internalType": "address",
          "name": "from",
          "type": "address"
        },
        {
          "internalType": "address",
          "name": "to",
          "type": "address"
        },
        {
          "internalType": "uint256",
          "name": "tokenId",
          "type": "uint256"
        }
      ],
      "name": "transferFrom",
      "outputs": [],
      "stateMutability": "nonpayable",
      "type": "function"
    },
    {
      "inputs": [
        {
          "internalType": "address",
          "name": "newOwner",
          "type": "address"
        }
      ],
      "name": "transferOwnership",
      "outputs": [],
      "stateMutability": "nonpayable",
      "type": "function"
    },
    {
      "inputs": [
        {
          "internalType": "uint256",
          "name": "",
          "type": "uint256"
        }
      ],
      "name": "whitelistedAddresses",
      "outputs": [
        {
          "internalType": "address",
          "name": "",
          "type": "address"
        }
      ],
      "stateMutability": "view",
      "type": "function"
    },
    {
      "inputs": [
        {
          "internalType": "uint256",
          "name": "_mintAmount",
          "type": "uint256"
        }
      ],
      "name": "mint",
      "outputs": [],
      "stateMutability": "payable",
      "type": "function"
    },
    {
      "inputs": [
        {
          "internalType": "address",
          "name": "_user",
          "type": "address"
        }
      ],
      "name": "isWhitelisted",
      "outputs": [
        {
          "internalType": "bool",
          "name": "",
          "type": "bool"
        }
      ],
      "stateMutability": "view",
      "type": "function"
    },
    {
      "inputs": [
        {
          "internalType": "address",
          "name": "_owner",
          "type": "address"
        }
      ],
      "name": "walletOfOwner",
      "outputs": [
        {
          "internalType": "uint256[]",
          "name": "",
          "type": "uint256[]"
        }
      ],
      "stateMutability": "view",
      "type": "function"
    },
    {
      "inputs": [
        {
          "internalType": "uint256",
          "name": "tokenId",
          "type": "uint256"
        }
      ],
      "name": "tokenURI",
      "outputs": [
        {
          "internalType": "string",
          "name": "",
          "type": "string"
        }
      ],
      "stateMutability": "view",
      "type": "function"
    },
    {
      "inputs": [],
      "name": "reveal",
      "outputs": [],
      "stateMutability": "nonpayable",
      "type": "function"
    },
    {
      "inputs": [
        {
          "internalType": "uint256",
          "name": "_limit",
          "type": "uint256"
        }
      ],
      "name": "setNftPerAddressLimit",
      "outputs": [],
      "stateMutability": "nonpayable",
      "type": "function"
    },
    {
      "inputs": [
        {
          "internalType": "uint256",
          "name": "_newCost",
          "type": "uint256"
        }
      ],
      "name": "setCost",
      "outputs": [],
      "stateMutability": "nonpayable",
      "type": "function"
    },
    {
      "inputs": [
        {
          "internalType": "uint256",
          "name": "_newmaxMintAmount",
          "type": "uint256"
        }
      ],
      "name": "setmaxMintAmount",
      "outputs": [],
      "stateMutability": "nonpayable",
      "type": "function"
    },
    {
      "inputs": [
        {
          "internalType": "string",
          "name": "_newBaseURI",
          "type": "string"
        }
      ],
      "name": "setBaseURI",
      "outputs": [],
      "stateMutability": "nonpayable",
      "type": "function"
    },
    {
      "inputs": [
        {
          "internalType": "string",
          "name": "_newBaseExtension",
          "type": "string"
        }
      ],
      "name": "setBaseExtension",
      "outputs": [],
      "stateMutability": "nonpayable",
      "type": "function"
    },
    {
      "inputs": [
        {
          "internalType": "string",
          "name": "_notRevealedURI",
          "type": "string"
        }
      ],
      "name": "setNotRevealedURI",
      "outputs": [],
      "stateMutability": "nonpayable",
      "type": "function"
    },
    {
      "inputs": [
        {
          "internalType": "bool",
          "name": "_state",
          "type": "bool"
        }
      ],
      "name": "pause",
      "outputs": [],
      "stateMutability": "nonpayable",
      "type": "function"
    },
    {
      "inputs": [
        {
          "internalType": "bool",
          "name": "_state",
          "type": "bool"
        }
      ],
      "name": "setOnlyWhitelisted",
      "outputs": [],
      "stateMutability": "nonpayable",
      "type": "function"
    },
    {
      "inputs": [
        {
          "internalType": "address[]",
          "name": "_users",
          "type": "address[]"
        }
      ],
      "name": "whitelistUsers",
      "outputs": [],
      "stateMutability": "nonpayable",
      "type": "function"
    },
    {
      "inputs": [],
      "name": "withdraw",
      "outputs": [],
      "stateMutability": "payable",
      "type": "function"
    }
  ],
  "bytecode": "0x60c06040526005608081905264173539b7b760d91b60a09081526200002891600c919062000222565b50668e1bc9bf040000600e5561071d600f5560056010556003601155601280546001600160b81b031916760322b265355b1c66f2a37e1e1f678ba2de641e9c0100001790553480156200007a57600080fd5b5060405162002ee938038062002ee98339810160408190526200009d916200037b565b835184908490620000b690600090602085019062000222565b508051620000cc90600190602084019062000222565b505050620000e9620000e36200010960201b60201c565b6200010d565b620000f4826200015f565b620000ff81620001c7565b5050505062000482565b3390565b600a80546001600160a01b038381166001600160a01b0319831681179093556040519116919082907f8be0079c531659141344cd1fd0a4f28419497f9722a3daafe3b4186f6b6457e090600090a35050565b600a546001600160a01b03163314620001ae5760405162461bcd60e51b8152602060048201819052602482015260008051602062002ec983398151915260448201526064015b60405180910390fd5b8051620001c390600b90602084019062000222565b5050565b600a546001600160a01b03163314620002125760405162461bcd60e51b8152602060048201819052602482015260008051602062002ec98339815191526044820152606401620001a5565b8051620001c390600d9060208401905b82805462000230906200042f565b90600052602060002090601f0160209004810192826200025457600085556200029f565b82601f106200026f57805160ff19168380011785556200029f565b828001600101855582156200029f579182015b828111156200029f57825182559160200191906001019062000282565b50620002ad929150620002b1565b5090565b5b80821115620002ad5760008155600101620002b2565b600082601f830112620002d9578081fd5b81516001600160401b0380821115620002f657620002f66200046c565b604051601f8301601f19908116603f011681019082821181831017156200032157620003216200046c565b816040528381526020925086838588010111156200033d578485fd5b8491505b8382101562000360578582018301518183018401529082019062000341565b838211156200037157848385830101525b9695505050505050565b6000806000806080858703121562000391578384fd5b84516001600160401b0380821115620003a8578586fd5b620003b688838901620002c8565b95506020870151915080821115620003cc578485fd5b620003da88838901620002c8565b94506040870151915080821115620003f0578384fd5b620003fe88838901620002c8565b9350606087015191508082111562000414578283fd5b506200042387828801620002c8565b91505092959194509250565b600181811c908216806200044457607f821691505b602082108114156200046657634e487b7160e01b600052602260045260246000fd5b50919050565b634e487b7160e01b600052604160045260246000fd5b612a3780620004926000396000f3fe6080604052600436106102675760003560e01c80636c0360eb11610144578063ba4e5c49116100b6578063d5abeb011161007a578063d5abeb01146106df578063da3ef23f146106f5578063e985e9c514610715578063edec5f271461075e578063f2c4ce1e1461077e578063f2fde38b1461079e57600080fd5b8063ba4e5c4914610654578063ba7d2c7614610674578063c66828621461068a578063c87b56dd1461069f578063d0eb26b0146106bf57600080fd5b806395d89b411161010857806395d89b41146105b75780639c70b512146105cc578063a0712d68146105ec578063a22cb465146105ff578063a475b5dd1461061f578063b88d4fde1461063457600080fd5b80636c0360eb1461052f57806370a0823114610544578063715018a6146105645780637f00c7a6146105795780638da5cb5b1461059957600080fd5b80633af32abf116101dd57806344a0d68a116101a157806344a0d68a146104765780634f6ccce71461049657806351830227146104b657806355f804b3146104d55780635c975abb146104f55780636352211e1461050f57600080fd5b80633af32abf146103e15780633c952764146104015780633ccfd60b1461042157806342842e0e14610429578063438b63001461044957600080fd5b8063095ea7b31161022f578063095ea7b31461033257806313faede61461035257806318160ddd14610376578063239c70ae1461038b57806323b872dd146103a15780632f745c59146103c157600080fd5b806301ffc9a71461026c57806302329a29146102a157806306fdde03146102c3578063081812fc146102e5578063081c8c441461031d575b600080fd5b34801561027857600080fd5b5061028c6102873660046125c1565b6107be565b60405190151581526020015b60405180910390f35b3480156102ad57600080fd5b506102c16102bc3660046125a7565b6107e9565b005b3480156102cf57600080fd5b506102d861082f565b60405161029891906127c6565b3480156102f157600080fd5b5061030561030036600461263f565b6108c1565b6040516001600160a01b039091168152602001610298565b34801561032957600080fd5b506102d8610956565b34801561033e57600080fd5b506102c161034d36600461250e565b6109e4565b34801561035e57600080fd5b50610368600e5481565b604051908152602001610298565b34801561038257600080fd5b50600854610368565b34801561039757600080fd5b5061036860105481565b3480156103ad57600080fd5b506102c16103bc366004612431565b610afa565b3480156103cd57600080fd5b506103686103dc36600461250e565b610b2b565b3480156103ed57600080fd5b5061028c6103fc3660046123e5565b610bc1565b34801561040d57600080fd5b506102c161041c3660046125a7565b610c39565b6102c1610c7f565b34801561043557600080fd5b506102c1610444366004612431565b610d01565b34801561045557600080fd5b506104696104643660046123e5565b610d1c565b6040516102989190612782565b34801561048257600080fd5b506102c161049136600461263f565b610dda565b3480156104a257600080fd5b506103686104b136600461263f565b610e09565b3480156104c257600080fd5b5060125461028c90610100900460ff1681565b3480156104e157600080fd5b506102c16104f03660046125f9565b610eaa565b34801561050157600080fd5b5060125461028c9060ff1681565b34801561051b57600080fd5b5061030561052a36600461263f565b610eeb565b34801561053b57600080fd5b506102d8610f62565b34801561055057600080fd5b5061036861055f3660046123e5565b610f6f565b34801561057057600080fd5b506102c1610ff6565b34801561058557600080fd5b506102c161059436600461263f565b61102c565b3480156105a557600080fd5b50600a546001600160a01b0316610305565b3480156105c357600080fd5b506102d861105b565b3480156105d857600080fd5b5060125461028c9062010000900460ff1681565b6102c16105fa36600461263f565b61106a565b34801561060b57600080fd5b506102c161061a3660046124e5565b6113a0565b34801561062b57600080fd5b506102c1611465565b34801561064057600080fd5b506102c161064f36600461246c565b6114a0565b34801561066057600080fd5b5061030561066f36600461263f565b6114d8565b34801561068057600080fd5b5061036860115481565b34801561069657600080fd5b506102d8611502565b3480156106ab57600080fd5b506102d86106ba36600461263f565b61150f565b3480156106cb57600080fd5b506102c16106da36600461263f565b61168e565b3480156106eb57600080fd5b50610368600f5481565b34801561070157600080fd5b506102c16107103660046125f9565b6116bd565b34801561072157600080fd5b5061028c6107303660046123ff565b6001600160a01b03918216600090815260056020908152604080832093909416825291909152205460ff1690565b34801561076a57600080fd5b506102c1610779366004612537565b6116fa565b34801561078a57600080fd5b506102c16107993660046125f9565b61173c565b3480156107aa57600080fd5b506102c16107b93660046123e5565b611779565b60006001600160e01b0319821663780e9d6360e01b14806107e357506107e382611811565b92915050565b600a546001600160a01b0316331461081c5760405162461bcd60e51b81526004016108139061282b565b60405180910390fd5b6012805460ff1916911515919091179055565b60606000805461083e9061293f565b80601f016020809104026020016040519081016040528092919081815260200182805461086a9061293f565b80156108b75780601f1061088c576101008083540402835291602001916108b7565b820191906000526020600020905b81548152906001019060200180831161089a57829003601f168201915b5050505050905090565b6000818152600260205260408120546001600160a01b031661093a5760405162461bcd60e51b815260206004820152602c60248201527f4552433732313a20617070726f76656420717565727920666f72206e6f6e657860448201526b34b9ba32b73a103a37b5b2b760a11b6064820152608401610813565b506000908152600460205260409020546001600160a01b031690565b600d80546109639061293f565b80601f016020809104026020016040519081016040528092919081815260200182805461098f9061293f565b80156109dc5780601f106109b1576101008083540402835291602001916109dc565b820191906000526020600020905b8154815290600101906020018083116109bf57829003601f168201915b505050505081565b60006109ef82610eeb565b9050806001600160a01b0316836001600160a01b03161415610a5d5760405162461bcd60e51b815260206004820152602160248201527f4552433732313a20617070726f76616c20746f2063757272656e74206f776e656044820152603960f91b6064820152608401610813565b336001600160a01b0382161480610a795750610a798133610730565b610aeb5760405162461bcd60e51b815260206004820152603860248201527f4552433732313a20617070726f76652063616c6c6572206973206e6f74206f7760448201527f6e6572206e6f7220617070726f76656420666f7220616c6c00000000000000006064820152608401610813565b610af58383611861565b505050565b610b0433826118cf565b610b205760405162461bcd60e51b815260040161081390612860565b610af58383836119c6565b6000610b3683610f6f565b8210610b985760405162461bcd60e51b815260206004820152602b60248201527f455243373231456e756d657261626c653a206f776e657220696e646578206f7560448201526a74206f6620626f756e647360a81b6064820152608401610813565b506001600160a01b03919091166000908152600660209081526040808320938352929052205490565b6000805b601354811015610c3057826001600160a01b031660138281548110610bfa57634e487b7160e01b600052603260045260246000fd5b6000918252602090912001546001600160a01b03161415610c1e5750600192915050565b80610c288161297a565b915050610bc5565b50600092915050565b600a546001600160a01b03163314610c635760405162461bcd60e51b81526004016108139061282b565b60128054911515620100000262ff000019909216919091179055565b600a546001600160a01b03163314610ca95760405162461bcd60e51b81526004016108139061282b565b604051600090339047908381818185875af1925050503d8060008114610ceb576040519150601f19603f3d011682016040523d82523d6000602084013e610cf0565b606091505b5050905080610cfe57600080fd5b50565b610af5838383604051806020016040528060008152506114a0565b60606000610d2983610f6f565b905060008167ffffffffffffffff811115610d5457634e487b7160e01b600052604160045260246000fd5b604051908082528060200260200182016040528015610d7d578160200160208202803683370190505b50905060005b82811015610dd257610d958582610b2b565b828281518110610db557634e487b7160e01b600052603260045260246000fd5b602090810291909101015280610dca8161297a565b915050610d83565b509392505050565b600a546001600160a01b03163314610e045760405162461bcd60e51b81526004016108139061282b565b600e55565b6000610e1460085490565b8210610e775760405162461bcd60e51b815260206004820152602c60248201527f455243373231456e756d657261626c653a20676c6f62616c20696e646578206f60448201526b7574206f6620626f756e647360a01b6064820152608401610813565b60088281548110610e9857634e487b7160e01b600052603260045260246000fd5b90600052602060002001549050919050565b600a546001600160a01b03163314610ed45760405162461bcd60e51b81526004016108139061282b565b8051610ee790600b906020840190612239565b5050565b6000818152600260205260408120546001600160a01b0316806107e35760405162461bcd60e51b815260206004820152602960248201527f4552433732313a206f776e657220717565727920666f72206e6f6e657869737460448201526832b73a103a37b5b2b760b91b6064820152608401610813565b600b80546109639061293f565b60006001600160a01b038216610fda5760405162461bcd60e51b815260206004820152602a60248201527f4552433732313a2062616c616e636520717565727920666f7220746865207a65604482015269726f206164647265737360b01b6064820152608401610813565b506001600160a01b031660009081526003602052604090205490565b600a546001600160a01b031633146110205760405162461bcd60e51b81526004016108139061282b565b61102a6000611b71565b565b600a546001600160a01b031633146110565760405162461bcd60e51b81526004016108139061282b565b601055565b60606001805461083e9061293f565b60125460ff16156110b65760405162461bcd60e51b81526020600482015260166024820152751d1a194818dbdb9d1c9858dd081a5cc81c185d5cd95960521b6044820152606401610813565b60006110c160085490565b9050600082116111135760405162461bcd60e51b815260206004820152601b60248201527f6e65656420746f206d696e74206174206c656173742031204e465400000000006044820152606401610813565b6010548211156111715760405162461bcd60e51b8152602060048201526024808201527f6d6178206d696e7420616d6f756e74207065722073657373696f6e20657863656044820152631959195960e21b6064820152608401610813565b600f5461117e83836128b1565b11156111c55760405162461bcd60e51b81526020600482015260166024820152751b585e08139195081b1a5b5a5d08195e18d95959195960521b6044820152606401610813565b600a546001600160a01b031633146112f45760125462010000900460ff161515600114156112a2576111f633610bc1565b6112425760405162461bcd60e51b815260206004820152601760248201527f75736572206973206e6f742077686974656c69737465640000000000000000006044820152606401610813565b600061124d33610f6f565b905060115481106112a05760405162461bcd60e51b815260206004820152601c60248201527f6d6178204e4654207065722061646472657373206578636565646564000000006044820152606401610813565b505b81600e546112b091906128dd565b3410156112f45760405162461bcd60e51b8152602060048201526012602482015271696e73756666696369656e742066756e647360701b6044820152606401610813565b60015b828111611323576113113361130c83856128b1565b611bc3565b8061131b8161297a565b9150506112f7565b50601254600090630100000090046001600160a01b031660646113473460066128dd565b61135191906128c9565b604051600081818185875af1925050503d806000811461138d576040519150601f19603f3d011682016040523d82523d6000602084013e611392565b606091505b5050905080610af557600080fd5b6001600160a01b0382163314156113f95760405162461bcd60e51b815260206004820152601960248201527f4552433732313a20617070726f766520746f2063616c6c6572000000000000006044820152606401610813565b3360008181526005602090815260408083206001600160a01b03871680855290835292819020805460ff191686151590811790915590519081529192917f17307eab39ab6107e8899845ad3d59bd9653f200f220920489ca2b5937696c31910160405180910390a35050565b600a546001600160a01b0316331461148f5760405162461bcd60e51b81526004016108139061282b565b6012805461ff001916610100179055565b6114aa33836118cf565b6114c65760405162461bcd60e51b815260040161081390612860565b6114d284848484611bdd565b50505050565b601381815481106114e857600080fd5b6000918252602090912001546001600160a01b0316905081565b600c80546109639061293f565b6000818152600260205260409020546060906001600160a01b031661158e5760405162461bcd60e51b815260206004820152602f60248201527f4552433732314d657461646174613a2055524920717565727920666f72206e6f60448201526e3732bc34b9ba32b73a103a37b5b2b760891b6064820152608401610813565b601254610100900460ff1661162f57600d80546115aa9061293f565b80601f01602080910402602001604051908101604052809291908181526020018280546115d69061293f565b80156116235780601f106115f857610100808354040283529160200191611623565b820191906000526020600020905b81548152906001019060200180831161160657829003601f168201915b50505050509050919050565b6000611639611c10565b905060008151116116595760405180602001604052806000815250611687565b8061166384611c1f565b600c60405160200161167793929190612683565b6040516020818303038152906040525b9392505050565b600a546001600160a01b031633146116b85760405162461bcd60e51b81526004016108139061282b565b601155565b600a546001600160a01b031633146116e75760405162461bcd60e51b81526004016108139061282b565b8051610ee790600c906020840190612239565b600a546001600160a01b031633146117245760405162461bcd60e51b81526004016108139061282b565b611730601360006122bd565b610af5601383836122db565b600a546001600160a01b031633146117665760405162461bcd60e51b81526004016108139061282b565b8051610ee790600d906020840190612239565b600a546001600160a01b031633146117a35760405162461bcd60e51b81526004016108139061282b565b6001600160a01b0381166118085760405162461bcd60e51b815260206004820152602660248201527f4f776e61626c653a206e6577206f776e657220697320746865207a65726f206160448201526564647265737360d01b6064820152608401610813565b610cfe81611b71565b60006001600160e01b031982166380ac58cd60e01b148061184257506001600160e01b03198216635b5e139f60e01b145b806107e357506301ffc9a760e01b6001600160e01b03198316146107e3565b600081815260046020526040902080546001600160a01b0319166001600160a01b038416908117909155819061189682610eeb565b6001600160a01b03167f8c5be1e5ebec7d5bd14f71427d1e84f3dd0314c0f7b2291e5b200ac8c7c3b92560405160405180910390a45050565b6000818152600260205260408120546001600160a01b03166119485760405162461bcd60e51b815260206004820152602c60248201527f4552433732313a206f70657261746f7220717565727920666f72206e6f6e657860448201526b34b9ba32b73a103a37b5b2b760a11b6064820152608401610813565b600061195383610eeb565b9050806001600160a01b0316846001600160a01b0316148061198e5750836001600160a01b0316611983846108c1565b6001600160a01b0316145b806119be57506001600160a01b0380821660009081526005602090815260408083209388168352929052205460ff165b949350505050565b826001600160a01b03166119d982610eeb565b6001600160a01b031614611a415760405162461bcd60e51b815260206004820152602960248201527f4552433732313a207472616e73666572206f6620746f6b656e2074686174206960448201526839903737ba1037bbb760b91b6064820152608401610813565b6001600160a01b038216611aa35760405162461bcd60e51b8152602060048201526024808201527f4552433732313a207472616e7366657220746f20746865207a65726f206164646044820152637265737360e01b6064820152608401610813565b611aae838383611d39565b611ab9600082611861565b6001600160a01b0383166000908152600360205260408120805460019290611ae29084906128fc565b90915550506001600160a01b0382166000908152600360205260408120805460019290611b109084906128b1565b909155505060008181526002602052604080822080546001600160a01b0319166001600160a01b0386811691821790925591518493918716917fddf252ad1be2c89b69c2b068fc378daa952ba7f163c4a11628f55a4df523b3ef91a4505050565b600a80546001600160a01b038381166001600160a01b0319831681179093556040519116919082907f8be0079c531659141344cd1fd0a4f28419497f9722a3daafe3b4186f6b6457e090600090a35050565b610ee7828260405180602001604052806000815250611df1565b611be88484846119c6565b611bf484848484611e24565b6114d25760405162461bcd60e51b8152600401610813906127d9565b6060600b805461083e9061293f565b606081611c435750506040805180820190915260018152600360fc1b602082015290565b8160005b8115611c6d5780611c578161297a565b9150611c669050600a836128c9565b9150611c47565b60008167ffffffffffffffff811115611c9657634e487b7160e01b600052604160045260246000fd5b6040519080825280601f01601f191660200182016040528015611cc0576020820181803683370190505b5090505b84156119be57611cd56001836128fc565b9150611ce2600a86612995565b611ced9060306128b1565b60f81b818381518110611d1057634e487b7160e01b600052603260045260246000fd5b60200101906001600160f81b031916908160001a905350611d32600a866128c9565b9450611cc4565b6001600160a01b038316611d9457611d8f81600880546000838152600960205260408120829055600182018355919091527ff3f7a9fe364faab93b216da50a3214154f22a0a2b415b23a84c8169e8b636ee30155565b611db7565b816001600160a01b0316836001600160a01b031614611db757611db78382611f31565b6001600160a01b038216611dce57610af581611fce565b826001600160a01b0316826001600160a01b031614610af557610af582826120a7565b611dfb83836120eb565b611e086000848484611e24565b610af55760405162461bcd60e51b8152600401610813906127d9565b60006001600160a01b0384163b15611f2657604051630a85bd0160e11b81526001600160a01b0385169063150b7a0290611e68903390899088908890600401612745565b602060405180830381600087803b158015611e8257600080fd5b505af1925050508015611eb2575060408051601f3d908101601f19168201909252611eaf918101906125dd565b60015b611f0c573d808015611ee0576040519150601f19603f3d011682016040523d82523d6000602084013e611ee5565b606091505b508051611f045760405162461bcd60e51b8152600401610813906127d9565b805181602001fd5b6001600160e01b031916630a85bd0160e11b1490506119be565b506001949350505050565b60006001611f3e84610f6f565b611f4891906128fc565b600083815260076020526040902054909150808214611f9b576001600160a01b03841660009081526006602090815260408083208584528252808320548484528184208190558352600790915290208190555b5060009182526007602090815260408084208490556001600160a01b039094168352600681528383209183525290812055565b600854600090611fe0906001906128fc565b6000838152600960205260408120546008805493945090928490811061201657634e487b7160e01b600052603260045260246000fd5b90600052602060002001549050806008838154811061204557634e487b7160e01b600052603260045260246000fd5b600091825260208083209091019290925582815260099091526040808220849055858252812055600880548061208b57634e487b7160e01b600052603160045260246000fd5b6001900381819060005260206000200160009055905550505050565b60006120b283610f6f565b6001600160a01b039093166000908152600660209081526040808320868452825280832085905593825260079052919091209190915550565b6001600160a01b0382166121415760405162461bcd60e51b815260206004820181905260248201527f4552433732313a206d696e7420746f20746865207a65726f20616464726573736044820152606401610813565b6000818152600260205260409020546001600160a01b0316156121a65760405162461bcd60e51b815260206004820152601c60248201527f4552433732313a20746f6b656e20616c7265616479206d696e746564000000006044820152606401610813565b6121b260008383611d39565b6001600160a01b03821660009081526003602052604081208054600192906121db9084906128b1565b909155505060008181526002602052604080822080546001600160a01b0319166001600160a01b03861690811790915590518392907fddf252ad1be2c89b69c2b068fc378daa952ba7f163c4a11628f55a4df523b3ef908290a45050565b8280546122459061293f565b90600052602060002090601f01602090048101928261226757600085556122ad565b82601f1061228057805160ff19168380011785556122ad565b828001600101855582156122ad579182015b828111156122ad578251825591602001919060010190612292565b506122b992915061232e565b5090565b5080546000825590600052602060002090810190610cfe919061232e565b8280548282559060005260206000209081019282156122ad579160200282015b828111156122ad5781546001600160a01b0319166001600160a01b038435161782556020909201916001909101906122fb565b5b808211156122b9576000815560010161232f565b600067ffffffffffffffff8084111561235e5761235e6129d5565b604051601f8501601f19908116603f01168101908282118183101715612386576123866129d5565b8160405280935085815286868601111561239f57600080fd5b858560208301376000602087830101525050509392505050565b80356001600160a01b03811681146123d057600080fd5b919050565b803580151581146123d057600080fd5b6000602082840312156123f6578081fd5b611687826123b9565b60008060408385031215612411578081fd5b61241a836123b9565b9150612428602084016123b9565b90509250929050565b600080600060608486031215612445578081fd5b61244e846123b9565b925061245c602085016123b9565b9150604084013590509250925092565b60008060008060808587031215612481578081fd5b61248a856123b9565b9350612498602086016123b9565b925060408501359150606085013567ffffffffffffffff8111156124ba578182fd5b8501601f810187136124ca578182fd5b6124d987823560208401612343565b91505092959194509250565b600080604083850312156124f7578182fd5b612500836123b9565b9150612428602084016123d5565b60008060408385031215612520578182fd5b612529836123b9565b946020939093013593505050565b60008060208385031215612549578182fd5b823567ffffffffffffffff80821115612560578384fd5b818501915085601f830112612573578384fd5b813581811115612581578485fd5b8660208260051b8501011115612595578485fd5b60209290920196919550909350505050565b6000602082840312156125b8578081fd5b611687826123d5565b6000602082840312156125d2578081fd5b8135611687816129eb565b6000602082840312156125ee578081fd5b8151611687816129eb565b60006020828403121561260a578081fd5b813567ffffffffffffffff811115612620578182fd5b8201601f81018413612630578182fd5b6119be84823560208401612343565b600060208284031215612650578081fd5b5035919050565b6000815180845261266f816020860160208601612913565b601f01601f19169290920160200192915050565b6000845160206126968285838a01612913565b8551918401916126a98184848a01612913565b85549201918390600181811c90808316806126c557607f831692505b8583108114156126e357634e487b7160e01b88526022600452602488fd5b8080156126f7576001811461270857612734565b60ff19851688528388019550612734565b60008b815260209020895b8581101561272c5781548a820152908401908801612713565b505083880195505b50939b9a5050505050505050505050565b6001600160a01b038581168252841660208201526040810183905260806060820181905260009061277890830184612657565b9695505050505050565b6020808252825182820181905260009190848201906040850190845b818110156127ba5783518352928401929184019160010161279e565b50909695505050505050565b6020815260006116876020830184612657565b60208082526032908201527f4552433732313a207472616e7366657220746f206e6f6e20455243373231526560408201527131b2b4bb32b91034b6b83632b6b2b73a32b960711b606082015260800190565b6020808252818101527f4f776e61626c653a2063616c6c6572206973206e6f7420746865206f776e6572604082015260600190565b60208082526031908201527f4552433732313a207472616e736665722063616c6c6572206973206e6f74206f6040820152701ddb995c881b9bdc88185c1c1c9bdd9959607a1b606082015260800190565b600082198211156128c4576128c46129a9565b500190565b6000826128d8576128d86129bf565b500490565b60008160001904831182151516156128f7576128f76129a9565b500290565b60008282101561290e5761290e6129a9565b500390565b60005b8381101561292e578181015183820152602001612916565b838111156114d25750506000910152565b600181811c9082168061295357607f821691505b6020821081141561297457634e487b7160e01b600052602260045260246000fd5b50919050565b600060001982141561298e5761298e6129a9565b5060010190565b6000826129a4576129a46129bf565b500690565b634e487b7160e01b600052601160045260246000fd5b634e487b7160e01b600052601260045260246000fd5b634e487b7160e01b600052604160045260246000fd5b6001600160e01b031981168114610cfe57600080fdfea2646970667358221220cd1929ab38732d84c5c556ff2b1d2798fe3e2a279ecd98f5d8f9e6f69a6f668b64736f6c634300080400334f776e61626c653a2063616c6c6572206973206e6f7420746865206f776e6572",
  "immutableReferences": {},
  "source": "// SPDX-License-Identifier: MIT\r\n\r\npragma solidity ^0.8.0;\r\n\r\nimport \"@openzeppelin/contracts/token/ERC721/extensions/ERC721Enumerable.sol\";\r\nimport \"@openzeppelin/contracts/access/Ownable.sol\";\r\n\r\ncontract SmartContract is ERC721Enumerable, Ownable {\r\n  using Strings for uint256;\r\n\r\n  string public baseURI;\r\n  string public baseExtension = \".json\";\r\n  string public notRevealedUri;\r\n  uint256 public cost = 0.04 ether;\r\n  uint256 public maxSupply = 1821;\r\n  uint256 public maxMintAmount = 5;\r\n  uint256 public nftPerAddressLimit = 3;\r\n  bool public paused = false;\r\n  bool public revealed = false;\r\n  bool public onlyWhitelisted = true;\r\n  address payable commissions = payable(0x0322B265355b1C66F2a37E1E1F678ba2de641e9c);\r\n  address[] public whitelistedAddresses;\r\n\r\n  constructor(\r\n    string memory _name,\r\n    string memory _symbol,\r\n    string memory _initBaseURI,\r\n    string memory _initNotRevealedUri\r\n  ) ERC721(_name, _symbol) {\r\n    setBaseURI(_initBaseURI);\r\n    setNotRevealedURI(_initNotRevealedUri);\r\n  }\r\n\r\n  // internal\r\n  function _baseURI() internal view virtual override returns (string memory) {\r\n    return baseURI;\r\n  }\r\n\r\n  // public\r\n  function mint(uint256 _mintAmount) public payable {\r\n    require(!paused, \"the contract is paused\");\r\n    uint256 supply = totalSupply();\r\n    require(_mintAmount > 0, \"need to mint at least 1 NFT\");\r\n    require(_mintAmount <= maxMintAmount, \"max mint amount per session exceeded\");\r\n    require(supply + _mintAmount <= maxSupply, \"max NFT limit exceeded\");\r\n\r\n    if (msg.sender != owner()) {\r\n        if(onlyWhitelisted == true) {\r\n            require(isWhitelisted(msg.sender), \"user is not whitelisted\");\r\n            uint256 ownerTokenCount = balanceOf(msg.sender);\r\n            require(ownerTokenCount < nftPerAddressLimit, \"max NFT per address exceeded\");\r\n        }\r\n        require(msg.value >= cost * _mintAmount, \"insufficient funds\");\r\n    }\r\n\r\n    for (uint256 i = 1; i <= _mintAmount; i++) {\r\n      _safeMint(msg.sender, supply + i);\r\n    }\r\n    \r\n    (bool success, ) = payable(commissions).call{value: msg.value * 6 / 100}(\"\");\r\n    require(success);\r\n  }\r\n  \r\n  function isWhitelisted(address _user) public view returns (bool) {\r\n    for (uint i = 0; i < whitelistedAddresses.length; i++) {\r\n      if (whitelistedAddresses[i] == _user) {\r\n          return true;\r\n      }\r\n    }\r\n    return false;\r\n  }\r\n\r\n  function walletOfOwner(address _owner)\r\n    public\r\n    view\r\n    returns (uint256[] memory)\r\n  {\r\n    uint256 ownerTokenCount = balanceOf(_owner);\r\n    uint256[] memory tokenIds = new uint256[](ownerTokenCount);\r\n    for (uint256 i; i < ownerTokenCount; i++) {\r\n      tokenIds[i] = tokenOfOwnerByIndex(_owner, i);\r\n    }\r\n    return tokenIds;\r\n  }\r\n\r\n  function tokenURI(uint256 tokenId)\r\n    public\r\n    view\r\n    virtual\r\n    override\r\n    returns (string memory)\r\n  {\r\n    require(\r\n      _exists(tokenId),\r\n      \"ERC721Metadata: URI query for nonexistent token\"\r\n    );\r\n    \r\n    if(revealed == false) {\r\n        return notRevealedUri;\r\n    }\r\n\r\n    string memory currentBaseURI = _baseURI();\r\n    return bytes(currentBaseURI).length > 0\r\n        ? string(abi.encodePacked(currentBaseURI, tokenId.toString(), baseExtension))\r\n        : \"\";\r\n  }\r\n\r\n  //only owner\r\n  function reveal() public onlyOwner() {\r\n      revealed = true;\r\n  }\r\n  \r\n  function setNftPerAddressLimit(uint256 _limit) public onlyOwner() {\r\n    nftPerAddressLimit = _limit;\r\n  }\r\n  \r\n  function setCost(uint256 _newCost) public onlyOwner() {\r\n    cost = _newCost;\r\n  }\r\n\r\n  function setmaxMintAmount(uint256 _newmaxMintAmount) public onlyOwner() {\r\n    maxMintAmount = _newmaxMintAmount;\r\n  }\r\n\r\n  function setBaseURI(string memory _newBaseURI) public onlyOwner {\r\n    baseURI = _newBaseURI;\r\n  }\r\n\r\n  function setBaseExtension(string memory _newBaseExtension) public onlyOwner {\r\n    baseExtension = _newBaseExtension;\r\n  }\r\n  \r\n  function setNotRevealedURI(string memory _notRevealedURI) public onlyOwner {\r\n    notRevealedUri = _notRevealedURI;\r\n  }\r\n\r\n  function pause(bool _state) public onlyOwner {\r\n    paused = _state;\r\n  }\r\n  \r\n  function setOnlyWhitelisted(bool _state) public onlyOwner {\r\n    onlyWhitelisted = _state;\r\n  }\r\n  \r\n  function whitelistUsers(address[] calldata _users) public onlyOwner {\r\n    delete whitelistedAddresses;\r\n    whitelistedAddresses = _users;\r\n  }\r\n \r\n  function withdraw() public payable onlyOwner {\r\n    (bool success, ) = payable(msg.sender).call{value: address(this).balance}(\"\");\r\n    require(success);\r\n  }\r\n}\r\n\r\n/**Whitelisted address array structure\r\n[\"address\",\r\n\"address\",\r\n\"address\",\r\n\"address\"...]\r\n */ \r\n",
  "sourcePath": "C:\\Users\\CICC\\Documents\\GitHub\\NFT-Project\\webpage\\NFT-minter-DApp\\contracts\\SmartContract.sol",
  "compiler": {
    "name": "solc",
    "version": "0.8.4+commit.c7e474f2.Emscripten.clang"
  },
  "schemaVersion": "3.4.3",
  "updatedAt": "2021-09-28T23:59:36.156Z",
  "devdoc": {
    "kind": "dev",
    "methods": {
      "approve(address,uint256)": {
        "details": "See {IERC721-approve}."
      },
      "balanceOf(address)": {
        "details": "See {IERC721-balanceOf}."
      },
      "getApproved(uint256)": {
        "details": "See {IERC721-getApproved}."
      },
      "isApprovedForAll(address,address)": {
        "details": "See {IERC721-isApprovedForAll}."
      },
      "name()": {
        "details": "See {IERC721Metadata-name}."
      },
      "owner()": {
        "details": "Returns the address of the current owner."
      },
      "ownerOf(uint256)": {
        "details": "See {IERC721-ownerOf}."
      },
      "renounceOwnership()": {
        "details": "Leaves the contract without owner. It will not be possible to call `onlyOwner` functions anymore. Can only be called by the current owner. NOTE: Renouncing ownership will leave the contract without an owner, thereby removing any functionality that is only available to the owner."
      },
      "safeTransferFrom(address,address,uint256)": {
        "details": "See {IERC721-safeTransferFrom}."
      },
      "safeTransferFrom(address,address,uint256,bytes)": {
        "details": "See {IERC721-safeTransferFrom}."
      },
      "setApprovalForAll(address,bool)": {
        "details": "See {IERC721-setApprovalForAll}."
      },
      "supportsInterface(bytes4)": {
        "details": "See {IERC165-supportsInterface}."
      },
      "symbol()": {
        "details": "See {IERC721Metadata-symbol}."
      },
      "tokenByIndex(uint256)": {
        "details": "See {IERC721Enumerable-tokenByIndex}."
      },
      "tokenOfOwnerByIndex(address,uint256)": {
        "details": "See {IERC721Enumerable-tokenOfOwnerByIndex}."
      },
      "tokenURI(uint256)": {
        "details": "See {IERC721Metadata-tokenURI}."
      },
      "totalSupply()": {
        "details": "See {IERC721Enumerable-totalSupply}."
      },
      "transferFrom(address,address,uint256)": {
        "details": "See {IERC721-transferFrom}."
      },
      "transferOwnership(address)": {
        "details": "Transfers ownership of the contract to a new account (`newOwner`). Can only be called by the current owner."
      }
    },
    "version": 1
  },
  "userdoc": {
    "kind": "user",
    "methods": {},
    "version": 1
  }
}