{
  "contractName": "NFT",
  "abi": [
    {
      "inputs": [
        {
          "internalType": "string",
          "name": "_name",
          "type": "string"
        },
        {
          "internalType": "string",
          "name": "_symbol",
          "type": "string"
        },
        {
          "internalType": "string",
          "name": "_initBaseURI",
          "type": "string"
        },
        {
          "internalType": "string",
          "name": "_initNotRevealedUri",
          "type": "string"
        }
      ],
      "stateMutability": "nonpayable",
      "type": "constructor"
    },
    {
      "anonymous": false,
      "inputs": [
        {
          "indexed": true,
          "internalType": "address",
          "name": "owner",
          "type": "address"
        },
        {
          "indexed": true,
          "internalType": "address",
          "name": "approved",
          "type": "address"
        },
        {
          "indexed": true,
          "internalType": "uint256",
          "name": "tokenId",
          "type": "uint256"
        }
      ],
      "name": "Approval",
      "type": "event"
    },
    {
      "anonymous": false,
      "inputs": [
        {
          "indexed": true,
          "internalType": "address",
          "name": "owner",
          "type": "address"
        },
        {
          "indexed": true,
          "internalType": "address",
          "name": "operator",
          "type": "address"
        },
        {
          "indexed": false,
          "internalType": "bool",
          "name": "approved",
          "type": "bool"
        }
      ],
      "name": "ApprovalForAll",
      "type": "event"
    },
    {
      "anonymous": false,
      "inputs": [
        {
          "indexed": true,
          "internalType": "address",
          "name": "previousOwner",
          "type": "address"
        },
        {
          "indexed": true,
          "internalType": "address",
          "name": "newOwner",
          "type": "address"
        }
      ],
      "name": "OwnershipTransferred",
      "type": "event"
    },
    {
      "anonymous": false,
      "inputs": [
        {
          "indexed": true,
          "internalType": "address",
          "name": "from",
          "type": "address"
        },
        {
          "indexed": true,
          "internalType": "address",
          "name": "to",
          "type": "address"
        },
        {
          "indexed": true,
          "internalType": "uint256",
          "name": "tokenId",
          "type": "uint256"
        }
      ],
      "name": "Transfer",
      "type": "event"
    },
    {
      "inputs": [
        {
          "internalType": "address",
          "name": "to",
          "type": "address"
        },
        {
          "internalType": "uint256",
          "name": "tokenId",
          "type": "uint256"
        }
      ],
      "name": "approve",
      "outputs": [],
      "stateMutability": "nonpayable",
      "type": "function"
    },
    {
      "inputs": [
        {
          "internalType": "address",
          "name": "owner",
          "type": "address"
        }
      ],
      "name": "balanceOf",
      "outputs": [
        {
          "internalType": "uint256",
          "name": "",
          "type": "uint256"
        }
      ],
      "stateMutability": "view",
      "type": "function"
    },
    {
      "inputs": [],
      "name": "baseExtension",
      "outputs": [
        {
          "internalType": "string",
          "name": "",
          "type": "string"
        }
      ],
      "stateMutability": "view",
      "type": "function"
    },
    {
      "inputs": [],
      "name": "baseURI",
      "outputs": [
        {
          "internalType": "string",
          "name": "",
          "type": "string"
        }
      ],
      "stateMutability": "view",
      "type": "function"
    },
    {
      "inputs": [],
      "name": "cost",
      "outputs": [
        {
          "internalType": "uint256",
          "name": "",
          "type": "uint256"
        }
      ],
      "stateMutability": "view",
      "type": "function"
    },
    {
      "inputs": [
        {
          "internalType": "uint256",
          "name": "tokenId",
          "type": "uint256"
        }
      ],
      "name": "getApproved",
      "outputs": [
        {
          "internalType": "address",
          "name": "",
          "type": "address"
        }
      ],
      "stateMutability": "view",
      "type": "function"
    },
    {
      "inputs": [
        {
          "internalType": "address",
          "name": "owner",
          "type": "address"
        },
        {
          "internalType": "address",
          "name": "operator",
          "type": "address"
        }
      ],
      "name": "isApprovedForAll",
      "outputs": [
        {
          "internalType": "bool",
          "name": "",
          "type": "bool"
        }
      ],
      "stateMutability": "view",
      "type": "function"
    },
    {
      "inputs": [],
      "name": "maxMintAmount",
      "outputs": [
        {
          "internalType": "uint256",
          "name": "",
          "type": "uint256"
        }
      ],
      "stateMutability": "view",
      "type": "function"
    },
    {
      "inputs": [],
      "name": "maxSupply",
      "outputs": [
        {
          "internalType": "uint256",
          "name": "",
          "type": "uint256"
        }
      ],
      "stateMutability": "view",
      "type": "function"
    },
    {
      "inputs": [],
      "name": "name",
      "outputs": [
        {
          "internalType": "string",
          "name": "",
          "type": "string"
        }
      ],
      "stateMutability": "view",
      "type": "function"
    },
    {
      "inputs": [],
      "name": "nftPerAddressLimit",
      "outputs": [
        {
          "internalType": "uint256",
          "name": "",
          "type": "uint256"
        }
      ],
      "stateMutability": "view",
      "type": "function"
    },
    {
      "inputs": [],
      "name": "notRevealedUri",
      "outputs": [
        {
          "internalType": "string",
          "name": "",
          "type": "string"
        }
      ],
      "stateMutability": "view",
      "type": "function"
    },
    {
      "inputs": [],
      "name": "onlyWhitelisted",
      "outputs": [
        {
          "internalType": "bool",
          "name": "",
          "type": "bool"
        }
      ],
      "stateMutability": "view",
      "type": "function"
    },
    {
      "inputs": [],
      "name": "owner",
      "outputs": [
        {
          "internalType": "address",
          "name": "",
          "type": "address"
        }
      ],
      "stateMutability": "view",
      "type": "function"
    },
    {
      "inputs": [
        {
          "internalType": "uint256",
          "name": "tokenId",
          "type": "uint256"
        }
      ],
      "name": "ownerOf",
      "outputs": [
        {
          "internalType": "address",
          "name": "",
          "type": "address"
        }
      ],
      "stateMutability": "view",
      "type": "function"
    },
    {
      "inputs": [],
      "name": "paused",
      "outputs": [
        {
          "internalType": "bool",
          "name": "",
          "type": "bool"
        }
      ],
      "stateMutability": "view",
      "type": "function"
    },
    {
      "inputs": [],
      "name": "renounceOwnership",
      "outputs": [],
      "stateMutability": "nonpayable",
      "type": "function"
    },
    {
      "inputs": [],
      "name": "revealed",
      "outputs": [
        {
          "internalType": "bool",
          "name": "",
          "type": "bool"
        }
      ],
      "stateMutability": "view",
      "type": "function"
    },
    {
      "inputs": [
        {
          "internalType": "address",
          "name": "from",
          "type": "address"
        },
        {
          "internalType": "address",
          "name": "to",
          "type": "address"
        },
        {
          "internalType": "uint256",
          "name": "tokenId",
          "type": "uint256"
        }
      ],
      "name": "safeTransferFrom",
      "outputs": [],
      "stateMutability": "nonpayable",
      "type": "function"
    },
    {
      "inputs": [
        {
          "internalType": "address",
          "name": "from",
          "type": "address"
        },
        {
          "internalType": "address",
          "name": "to",
          "type": "address"
        },
        {
          "internalType": "uint256",
          "name": "tokenId",
          "type": "uint256"
        },
        {
          "internalType": "bytes",
          "name": "_data",
          "type": "bytes"
        }
      ],
      "name": "safeTransferFrom",
      "outputs": [],
      "stateMutability": "nonpayable",
      "type": "function"
    },
    {
      "inputs": [
        {
          "internalType": "address",
          "name": "operator",
          "type": "address"
        },
        {
          "internalType": "bool",
          "name": "approved",
          "type": "bool"
        }
      ],
      "name": "setApprovalForAll",
      "outputs": [],
      "stateMutability": "nonpayable",
      "type": "function"
    },
    {
      "inputs": [
        {
          "internalType": "bytes4",
          "name": "interfaceId",
          "type": "bytes4"
        }
      ],
      "name": "supportsInterface",
      "outputs": [
        {
          "internalType": "bool",
          "name": "",
          "type": "bool"
        }
      ],
      "stateMutability": "view",
      "type": "function"
    },
    {
      "inputs": [],
      "name": "symbol",
      "outputs": [
        {
          "internalType": "string",
          "name": "",
          "type": "string"
        }
      ],
      "stateMutability": "view",
      "type": "function"
    },
    {
      "inputs": [
        {
          "internalType": "uint256",
          "name": "index",
          "type": "uint256"
        }
      ],
      "name": "tokenByIndex",
      "outputs": [
        {
          "internalType": "uint256",
          "name": "",
          "type": "uint256"
        }
      ],
      "stateMutability": "view",
      "type": "function"
    },
    {
      "inputs": [
        {
          "internalType": "address",
          "name": "owner",
          "type": "address"
        },
        {
          "internalType": "uint256",
          "name": "index",
          "type": "uint256"
        }
      ],
      "name": "tokenOfOwnerByIndex",
      "outputs": [
        {
          "internalType": "uint256",
          "name": "",
          "type": "uint256"
        }
      ],
      "stateMutability": "view",
      "type": "function"
    },
    {
      "inputs": [],
      "name": "totalSupply",
      "outputs": [
        {
          "internalType": "uint256",
          "name": "",
          "type": "uint256"
        }
      ],
      "stateMutability": "view",
      "type": "function"
    },
    {
      "inputs": [
        {
          "internalType": "address",
          "name": "from",
          "type": "address"
        },
        {
          "internalType": "address",
          "name": "to",
          "type": "address"
        },
        {
          "internalType": "uint256",
          "name": "tokenId",
          "type": "uint256"
        }
      ],
      "name": "transferFrom",
      "outputs": [],
      "stateMutability": "nonpayable",
      "type": "function"
    },
    {
      "inputs": [
        {
          "internalType": "address",
          "name": "newOwner",
          "type": "address"
        }
      ],
      "name": "transferOwnership",
      "outputs": [],
      "stateMutability": "nonpayable",
      "type": "function"
    },
    {
      "inputs": [
        {
          "internalType": "uint256",
          "name": "",
          "type": "uint256"
        }
      ],
      "name": "whitelistedAddresses",
      "outputs": [
        {
          "internalType": "address",
          "name": "",
          "type": "address"
        }
      ],
      "stateMutability": "view",
      "type": "function"
    },
    {
      "inputs": [
        {
          "internalType": "uint256",
          "name": "_mintAmount",
          "type": "uint256"
        }
      ],
      "name": "mint",
      "outputs": [],
      "stateMutability": "payable",
      "type": "function"
    },
    {
      "inputs": [
        {
          "internalType": "address",
          "name": "_user",
          "type": "address"
        }
      ],
      "name": "isWhitelisted",
      "outputs": [
        {
          "internalType": "bool",
          "name": "",
          "type": "bool"
        }
      ],
      "stateMutability": "view",
      "type": "function"
    },
    {
      "inputs": [
        {
          "internalType": "address",
          "name": "_owner",
          "type": "address"
        }
      ],
      "name": "walletOfOwner",
      "outputs": [
        {
          "internalType": "uint256[]",
          "name": "",
          "type": "uint256[]"
        }
      ],
      "stateMutability": "view",
      "type": "function"
    },
    {
      "inputs": [
        {
          "internalType": "uint256",
          "name": "tokenId",
          "type": "uint256"
        }
      ],
      "name": "tokenURI",
      "outputs": [
        {
          "internalType": "string",
          "name": "",
          "type": "string"
        }
      ],
      "stateMutability": "view",
      "type": "function"
    },
    {
      "inputs": [],
      "name": "reveal",
      "outputs": [],
      "stateMutability": "nonpayable",
      "type": "function"
    },
    {
      "inputs": [
        {
          "internalType": "uint256",
          "name": "_limit",
          "type": "uint256"
        }
      ],
      "name": "setNftPerAddressLimit",
      "outputs": [],
      "stateMutability": "nonpayable",
      "type": "function"
    },
    {
      "inputs": [
        {
          "internalType": "uint256",
          "name": "_newCost",
          "type": "uint256"
        }
      ],
      "name": "setCost",
      "outputs": [],
      "stateMutability": "nonpayable",
      "type": "function"
    },
    {
      "inputs": [
        {
          "internalType": "uint256",
          "name": "_newmaxMintAmount",
          "type": "uint256"
        }
      ],
      "name": "setmaxMintAmount",
      "outputs": [],
      "stateMutability": "nonpayable",
      "type": "function"
    },
    {
      "inputs": [
        {
          "internalType": "string",
          "name": "_newBaseURI",
          "type": "string"
        }
      ],
      "name": "setBaseURI",
      "outputs": [],
      "stateMutability": "nonpayable",
      "type": "function"
    },
    {
      "inputs": [
        {
          "internalType": "string",
          "name": "_newBaseExtension",
          "type": "string"
        }
      ],
      "name": "setBaseExtension",
      "outputs": [],
      "stateMutability": "nonpayable",
      "type": "function"
    },
    {
      "inputs": [
        {
          "internalType": "string",
          "name": "_notRevealedURI",
          "type": "string"
        }
      ],
      "name": "setNotRevealedURI",
      "outputs": [],
      "stateMutability": "nonpayable",
      "type": "function"
    },
    {
      "inputs": [
        {
          "internalType": "bool",
          "name": "_state",
          "type": "bool"
        }
      ],
      "name": "pause",
      "outputs": [],
      "stateMutability": "nonpayable",
      "type": "function"
    },
    {
      "inputs": [
        {
          "internalType": "bool",
          "name": "_state",
          "type": "bool"
        }
      ],
      "name": "setOnlyWhitelisted",
      "outputs": [],
      "stateMutability": "nonpayable",
      "type": "function"
    },
    {
      "inputs": [
        {
          "internalType": "address[]",
          "name": "_users",
          "type": "address[]"
        }
      ],
      "name": "whitelistUsers",
      "outputs": [],
      "stateMutability": "nonpayable",
      "type": "function"
    },
    {
      "inputs": [],
      "name": "withdraw",
      "outputs": [],
      "stateMutability": "payable",
      "type": "function"
    }
  ],
  "bytecode": "0x60c06040526005608081905264173539b7b760d91b60a09081526200002891600c919062000241565b50668e1bc9bf040000600e5561071d600f5560056010556003601155601280546201000062ffffff19909116176301000000600160b81b031916760322b265355b1c66f2a37e1e1f678ba2de641e9c0000001790553480156200008a57600080fd5b506040516200319538038062003195833981016040819052620000ad9162000392565b835184908490620000c690600090602085019062000241565b508051620000dc90600190602084019062000241565b505050620000f9620000f36200011960201b60201c565b6200011d565b62000104826200016f565b6200010f81620001d7565b50505050620004ce565b3390565b600a80546001600160a01b038381166001600160a01b0319831681179093556040519116919082907f8be0079c531659141344cd1fd0a4f28419497f9722a3daafe3b4186f6b6457e090600090a35050565b6200017962000119565b6001600160a01b03166200018c62000232565b6001600160a01b031614620001be5760405162461bcd60e51b8152600401620001b59062000446565b60405180910390fd5b8051620001d390600b90602084019062000241565b5050565b620001e162000119565b6001600160a01b0316620001f462000232565b6001600160a01b0316146200021d5760405162461bcd60e51b8152600401620001b59062000446565b8051620001d390600d90602084019062000241565b600a546001600160a01b031690565b8280546200024f906200047b565b90600052602060002090601f016020900481019282620002735760008555620002be565b82601f106200028e57805160ff1916838001178555620002be565b82800160010185558215620002be579182015b82811115620002be578251825591602001919060010190620002a1565b50620002cc929150620002d0565b5090565b5b80821115620002cc5760008155600101620002d1565b600082601f830112620002f8578081fd5b81516001600160401b0380821115620003155762000315620004b8565b6040516020601f8401601f19168201810183811183821017156200033d576200033d620004b8565b604052838252858401810187101562000354578485fd5b8492505b8383101562000377578583018101518284018201529182019162000358565b838311156200038857848185840101525b5095945050505050565b60008060008060808587031215620003a8578384fd5b84516001600160401b0380821115620003bf578586fd5b620003cd88838901620002e7565b95506020870151915080821115620003e3578485fd5b620003f188838901620002e7565b9450604087015191508082111562000407578384fd5b6200041588838901620002e7565b935060608701519150808211156200042b578283fd5b506200043a87828801620002e7565b91505092959194509250565b6020808252818101527f4f776e61626c653a2063616c6c6572206973206e6f7420746865206f776e6572604082015260600190565b6002810460018216806200049057607f821691505b60208210811415620004b257634e487b7160e01b600052602260045260246000fd5b50919050565b634e487b7160e01b600052604160045260246000fd5b612cb780620004de6000396000f3fe6080604052600436106102675760003560e01c80636c0360eb11610144578063ba4e5c49116100b6578063d5abeb011161007a578063d5abeb01146106ae578063da3ef23f146106c3578063e985e9c5146106e3578063edec5f2714610703578063f2c4ce1e14610723578063f2fde38b1461074357610267565b8063ba4e5c4914610624578063ba7d2c7614610644578063c668286214610659578063c87b56dd1461066e578063d0eb26b01461068e57610267565b806395d89b411161010857806395d89b41146105925780639c70b512146105a7578063a0712d68146105bc578063a22cb465146105cf578063a475b5dd146105ef578063b88d4fde1461060457610267565b80636c0360eb1461051357806370a0823114610528578063715018a6146105485780637f00c7a61461055d5780638da5cb5b1461057d57610267565b80633af32abf116101dd57806344a0d68a116101a157806344a0d68a146104695780634f6ccce71461048957806351830227146104a957806355f804b3146104be5780635c975abb146104de5780636352211e146104f357610267565b80633af32abf146103d45780633c952764146103f45780633ccfd60b1461041457806342842e0e1461041c578063438b63001461043c57610267565b8063095ea7b31161022f578063095ea7b31461032857806313faede61461034857806318160ddd1461036a578063239c70ae1461037f57806323b872dd146103945780632f745c59146103b457610267565b806301ffc9a71461026c57806302329a29146102a257806306fdde03146102c4578063081812fc146102e6578063081c8c4414610313575b600080fd5b34801561027857600080fd5b5061028c610287366004612270565b610763565b604051610299919061248c565b60405180910390f35b3480156102ae57600080fd5b506102c26102bd366004612256565b610790565b005b3480156102d057600080fd5b506102d96107eb565b6040516102999190612497565b3480156102f257600080fd5b506103066103013660046122ee565b61087d565b60405161029991906123f7565b34801561031f57600080fd5b506102d96108c0565b34801561033457600080fd5b506102c26103433660046121be565b61094e565b34801561035457600080fd5b5061035d6109e6565b6040516102999190612b1c565b34801561037657600080fd5b5061035d6109ec565b34801561038b57600080fd5b5061035d6109f2565b3480156103a057600080fd5b506102c26103af3660046120e1565b6109f8565b3480156103c057600080fd5b5061035d6103cf3660046121be565b610a30565b3480156103e057600080fd5b5061028c6103ef366004612095565b610a82565b34801561040057600080fd5b506102c261040f366004612256565b610afb565b6102c2610b56565b34801561042857600080fd5b506102c26104373660046120e1565b610c01565b34801561044857600080fd5b5061045c610457366004612095565b610c1c565b6040516102999190612448565b34801561047557600080fd5b506102c26104843660046122ee565b610cda565b34801561049557600080fd5b5061035d6104a43660046122ee565b610d1e565b3480156104b557600080fd5b5061028c610d79565b3480156104ca57600080fd5b506102c26104d93660046122a8565b610d87565b3480156104ea57600080fd5b5061028c610ddd565b3480156104ff57600080fd5b5061030661050e3660046122ee565b610de6565b34801561051f57600080fd5b506102d9610e1b565b34801561053457600080fd5b5061035d610543366004612095565b610e28565b34801561055457600080fd5b506102c2610e6c565b34801561056957600080fd5b506102c26105783660046122ee565b610eb7565b34801561058957600080fd5b50610306610efb565b34801561059e57600080fd5b506102d9610f0a565b3480156105b357600080fd5b5061028c610f19565b6102c26105ca3660046122ee565b610f28565b3480156105db57600080fd5b506102c26105ea366004612195565b611135565b3480156105fb57600080fd5b506102c2611203565b34801561061057600080fd5b506102c261061f36600461211c565b611253565b34801561063057600080fd5b5061030661063f3660046122ee565b611292565b34801561065057600080fd5b5061035d6112bc565b34801561066557600080fd5b506102d96112c2565b34801561067a57600080fd5b506102d96106893660046122ee565b6112cf565b34801561069a57600080fd5b506102c26106a93660046122ee565b6113f6565b3480156106ba57600080fd5b5061035d61143a565b3480156106cf57600080fd5b506102c26106de3660046122a8565b611440565b3480156106ef57600080fd5b5061028c6106fe3660046120af565b611492565b34801561070f57600080fd5b506102c261071e3660046121e7565b6114c0565b34801561072f57600080fd5b506102c261073e3660046122a8565b611517565b34801561074f57600080fd5b506102c261075e366004612095565b611569565b60006001600160e01b0319821663780e9d6360e01b14806107885750610788826115d7565b90505b919050565b610798611617565b6001600160a01b03166107a9610efb565b6001600160a01b0316146107d85760405162461bcd60e51b81526004016107cf906128a7565b60405180910390fd5b6012805460ff1916911515919091179055565b6060600080546107fa90612bbf565b80601f016020809104026020016040519081016040528092919081815260200182805461082690612bbf565b80156108735780601f1061084857610100808354040283529160200191610873565b820191906000526020600020905b81548152906001019060200180831161085657829003601f168201915b5050505050905090565b60006108888261161b565b6108a45760405162461bcd60e51b81526004016107cf9061285b565b506000908152600460205260409020546001600160a01b031690565b600d80546108cd90612bbf565b80601f01602080910402602001604051908101604052809291908181526020018280546108f990612bbf565b80156109465780601f1061091b57610100808354040283529160200191610946565b820191906000526020600020905b81548152906001019060200180831161092957829003601f168201915b505050505081565b600061095982610de6565b9050806001600160a01b0316836001600160a01b0316141561098d5760405162461bcd60e51b81526004016107cf906129a4565b806001600160a01b031661099f611617565b6001600160a01b031614806109bb57506109bb816106fe611617565b6109d75760405162461bcd60e51b81526004016107cf906126c2565b6109e18383611638565b505050565b600e5481565b60085490565b60105481565b610a09610a03611617565b826116a6565b610a255760405162461bcd60e51b81526004016107cf90612a11565b6109e183838361172b565b6000610a3b83610e28565b8210610a595760405162461bcd60e51b81526004016107cf906124aa565b506001600160a01b03919091166000908152600660209081526040808320938352929052205490565b6000805b601354811015610af257826001600160a01b031660138281548110610abb57634e487b7160e01b600052603260045260246000fd5b6000918252602090912001546001600160a01b03161415610ae057600191505061078b565b80610aea81612bfa565b915050610a86565b50600092915050565b610b03611617565b6001600160a01b0316610b14610efb565b6001600160a01b031614610b3a5760405162461bcd60e51b81526004016107cf906128a7565b60128054911515620100000262ff000019909216919091179055565b610b5e611617565b6001600160a01b0316610b6f610efb565b6001600160a01b031614610b955760405162461bcd60e51b81526004016107cf906128a7565b6000336001600160a01b031647604051610bae906123f4565b60006040518083038185875af1925050503d8060008114610beb576040519150601f19603f3d011682016040523d82523d6000602084013e610bf0565b606091505b5050905080610bfe57600080fd5b50565b6109e183838360405180602001604052806000815250611253565b60606000610c2983610e28565b905060008167ffffffffffffffff811115610c5457634e487b7160e01b600052604160045260246000fd5b604051908082528060200260200182016040528015610c7d578160200160208202803683370190505b50905060005b82811015610cd257610c958582610a30565b828281518110610cb557634e487b7160e01b600052603260045260246000fd5b602090810291909101015280610cca81612bfa565b915050610c83565b509392505050565b610ce2611617565b6001600160a01b0316610cf3610efb565b6001600160a01b031614610d195760405162461bcd60e51b81526004016107cf906128a7565b600e55565b6000610d286109ec565b8210610d465760405162461bcd60e51b81526004016107cf90612a62565b60088281548110610d6757634e487b7160e01b600052603260045260246000fd5b90600052602060002001549050919050565b601254610100900460ff1681565b610d8f611617565b6001600160a01b0316610da0610efb565b6001600160a01b031614610dc65760405162461bcd60e51b81526004016107cf906128a7565b8051610dd990600b906020840190611ef4565b5050565b60125460ff1681565b6000818152600260205260408120546001600160a01b0316806107885760405162461bcd60e51b81526004016107cf90612769565b600b80546108cd90612bbf565b60006001600160a01b038216610e505760405162461bcd60e51b81526004016107cf9061271f565b506001600160a01b031660009081526003602052604090205490565b610e74611617565b6001600160a01b0316610e85610efb565b6001600160a01b031614610eab5760405162461bcd60e51b81526004016107cf906128a7565b610eb56000611858565b565b610ebf611617565b6001600160a01b0316610ed0610efb565b6001600160a01b031614610ef65760405162461bcd60e51b81526004016107cf906128a7565b601055565b600a546001600160a01b031690565b6060600180546107fa90612bbf565b60125462010000900460ff1681565b60125460ff1615610f4b5760405162461bcd60e51b81526004016107cf906128dc565b6000610f556109ec565b905060008211610f775760405162461bcd60e51b81526004016107cf90612ae5565b601054821115610f995760405162461bcd60e51b81526004016107cf906127e2565b600f54610fa68383612b31565b1115610fc45760405162461bcd60e51b81526004016107cf906127b2565b610fcc610efb565b6001600160a01b0316336001600160a01b03161461107c5760125462010000900460ff1615156001141561104f5761100333610a82565b61101f5760405162461bcd60e51b81526004016107cf90612aae565b600061102a33610e28565b9050601154811061104d5760405162461bcd60e51b81526004016107cf906125c4565b505b81600e5461105d9190612b5d565b34101561107c5760405162461bcd60e51b81526004016107cf906129e5565b60015b8281116110ab57611099336110948385612b31565b6118aa565b806110a381612bfa565b91505061107f565b50601254600090630100000090046001600160a01b031660646110cf346006612b5d565b6110d99190612b49565b6040516110e5906123f4565b60006040518083038185875af1925050503d8060008114611122576040519150601f19603f3d011682016040523d82523d6000602084013e611127565b606091505b50509050806109e157600080fd5b61113d611617565b6001600160a01b0316826001600160a01b0316141561116e5760405162461bcd60e51b81526004016107cf9061263f565b806005600061117b611617565b6001600160a01b03908116825260208083019390935260409182016000908120918716808252919093529120805460ff1916921515929092179091556111bf611617565b6001600160a01b03167f17307eab39ab6107e8899845ad3d59bd9653f200f220920489ca2b5937696c31836040516111f7919061248c565b60405180910390a35050565b61120b611617565b6001600160a01b031661121c610efb565b6001600160a01b0316146112425760405162461bcd60e51b81526004016107cf906128a7565b6012805461ff001916610100179055565b61126461125e611617565b836116a6565b6112805760405162461bcd60e51b81526004016107cf90612a11565b61128c848484846118c4565b50505050565b601381815481106112a257600080fd5b6000918252602090912001546001600160a01b0316905081565b60115481565b600c80546108cd90612bbf565b60606112da8261161b565b6112f65760405162461bcd60e51b81526004016107cf90612955565b601254610100900460ff1661139757600d805461131290612bbf565b80601f016020809104026020016040519081016040528092919081815260200182805461133e90612bbf565b801561138b5780601f106113605761010080835404028352916020019161138b565b820191906000526020600020905b81548152906001019060200180831161136e57829003601f168201915b5050505050905061078b565b60006113a16118f7565b905060008151116113c157604051806020016040528060008152506113ef565b806113cb84611906565b600c6040516020016113df93929190612332565b6040516020818303038152906040525b9392505050565b6113fe611617565b6001600160a01b031661140f610efb565b6001600160a01b0316146114355760405162461bcd60e51b81526004016107cf906128a7565b601155565b600f5481565b611448611617565b6001600160a01b0316611459610efb565b6001600160a01b03161461147f5760405162461bcd60e51b81526004016107cf906128a7565b8051610dd990600c906020840190611ef4565b6001600160a01b03918216600090815260056020908152604080832093909416825291909152205460ff1690565b6114c8611617565b6001600160a01b03166114d9610efb565b6001600160a01b0316146114ff5760405162461bcd60e51b81526004016107cf906128a7565b61150b60136000611f78565b6109e160138383611f96565b61151f611617565b6001600160a01b0316611530610efb565b6001600160a01b0316146115565760405162461bcd60e51b81526004016107cf906128a7565b8051610dd990600d906020840190611ef4565b611571611617565b6001600160a01b0316611582610efb565b6001600160a01b0316146115a85760405162461bcd60e51b81526004016107cf906128a7565b6001600160a01b0381166115ce5760405162461bcd60e51b81526004016107cf90612547565b610bfe81611858565b60006001600160e01b031982166380ac58cd60e01b148061160857506001600160e01b03198216635b5e139f60e01b145b80610788575061078882611a21565b3390565b6000908152600260205260409020546001600160a01b0316151590565b600081815260046020526040902080546001600160a01b0319166001600160a01b038416908117909155819061166d82610de6565b6001600160a01b03167f8c5be1e5ebec7d5bd14f71427d1e84f3dd0314c0f7b2291e5b200ac8c7c3b92560405160405180910390a45050565b60006116b18261161b565b6116cd5760405162461bcd60e51b81526004016107cf90612676565b60006116d883610de6565b9050806001600160a01b0316846001600160a01b031614806117135750836001600160a01b03166117088461087d565b6001600160a01b0316145b8061172357506117238185611492565b949350505050565b826001600160a01b031661173e82610de6565b6001600160a01b0316146117645760405162461bcd60e51b81526004016107cf9061290c565b6001600160a01b03821661178a5760405162461bcd60e51b81526004016107cf906125fb565b611795838383611a3a565b6117a0600082611638565b6001600160a01b03831660009081526003602052604081208054600192906117c9908490612b7c565b90915550506001600160a01b03821660009081526003602052604081208054600192906117f7908490612b31565b909155505060008181526002602052604080822080546001600160a01b0319166001600160a01b0386811691821790925591518493918716917fddf252ad1be2c89b69c2b068fc378daa952ba7f163c4a11628f55a4df523b3ef91a4505050565b600a80546001600160a01b038381166001600160a01b0319831681179093556040519116919082907f8be0079c531659141344cd1fd0a4f28419497f9722a3daafe3b4186f6b6457e090600090a35050565b610dd9828260405180602001604052806000815250611ac3565b6118cf84848461172b565b6118db84848484611af6565b61128c5760405162461bcd60e51b81526004016107cf906124f5565b6060600b80546107fa90612bbf565b60608161192b57506040805180820190915260018152600360fc1b602082015261078b565b8160005b8115611955578061193f81612bfa565b915061194e9050600a83612b49565b915061192f565b60008167ffffffffffffffff81111561197e57634e487b7160e01b600052604160045260246000fd5b6040519080825280601f01601f1916602001820160405280156119a8576020820181803683370190505b5090505b8415611723576119bd600183612b7c565b91506119ca600a86612c15565b6119d5906030612b31565b60f81b8183815181106119f857634e487b7160e01b600052603260045260246000fd5b60200101906001600160f81b031916908160001a905350611a1a600a86612b49565b94506119ac565b6001600160e01b031981166301ffc9a760e01b14919050565b611a458383836109e1565b6001600160a01b038316611a6157611a5c81611c11565b611a84565b816001600160a01b0316836001600160a01b031614611a8457611a848382611c55565b6001600160a01b038216611aa057611a9b81611cf2565b6109e1565b826001600160a01b0316826001600160a01b0316146109e1576109e18282611dcb565b611acd8383611e0f565b611ada6000848484611af6565b6109e15760405162461bcd60e51b81526004016107cf906124f5565b6000611b0a846001600160a01b0316611eee565b15611c0657836001600160a01b031663150b7a02611b26611617565b8786866040518563ffffffff1660e01b8152600401611b48949392919061240b565b602060405180830381600087803b158015611b6257600080fd5b505af1925050508015611b92575060408051601f3d908101601f19168201909252611b8f9181019061228c565b60015b611bec573d808015611bc0576040519150601f19603f3d011682016040523d82523d6000602084013e611bc5565b606091505b508051611be45760405162461bcd60e51b81526004016107cf906124f5565b805181602001fd5b6001600160e01b031916630a85bd0160e11b149050611723565b506001949350505050565b600880546000838152600960205260408120829055600182018355919091527ff3f7a9fe364faab93b216da50a3214154f22a0a2b415b23a84c8169e8b636ee30155565b60006001611c6284610e28565b611c6c9190612b7c565b600083815260076020526040902054909150808214611cbf576001600160a01b03841660009081526006602090815260408083208584528252808320548484528184208190558352600790915290208190555b5060009182526007602090815260408084208490556001600160a01b039094168352600681528383209183525290812055565b600854600090611d0490600190612b7c565b60008381526009602052604081205460088054939450909284908110611d3a57634e487b7160e01b600052603260045260246000fd5b906000526020600020015490508060088381548110611d6957634e487b7160e01b600052603260045260246000fd5b6000918252602080832090910192909255828152600990915260408082208490558582528120556008805480611daf57634e487b7160e01b600052603160045260246000fd5b6001900381819060005260206000200160009055905550505050565b6000611dd683610e28565b6001600160a01b039093166000908152600660209081526040808320868452825280832085905593825260079052919091209190915550565b6001600160a01b038216611e355760405162461bcd60e51b81526004016107cf90612826565b611e3e8161161b565b15611e5b5760405162461bcd60e51b81526004016107cf9061258d565b611e6760008383611a3a565b6001600160a01b0382166000908152600360205260408120805460019290611e90908490612b31565b909155505060008181526002602052604080822080546001600160a01b0319166001600160a01b03861690811790915590518392907fddf252ad1be2c89b69c2b068fc378daa952ba7f163c4a11628f55a4df523b3ef908290a45050565b3b151590565b828054611f0090612bbf565b90600052602060002090601f016020900481019282611f225760008555611f68565b82601f10611f3b57805160ff1916838001178555611f68565b82800160010185558215611f68579182015b82811115611f68578251825591602001919060010190611f4d565b50611f74929150611fe9565b5090565b5080546000825590600052602060002090810190610bfe9190611fe9565b828054828255906000526020600020908101928215611f68579160200282015b82811115611f685781546001600160a01b0319166001600160a01b03843516178255602090920191600190910190611fb6565b5b80821115611f745760008155600101611fea565b600067ffffffffffffffff8084111561201957612019612c55565b604051601f8501601f19168101602001828111828210171561203d5761203d612c55565b60405284815291508183850186101561205557600080fd5b8484602083013760006020868301015250509392505050565b80356001600160a01b038116811461078b57600080fd5b8035801515811461078b57600080fd5b6000602082840312156120a6578081fd5b6113ef8261206e565b600080604083850312156120c1578081fd5b6120ca8361206e565b91506120d86020840161206e565b90509250929050565b6000806000606084860312156120f5578081fd5b6120fe8461206e565b925061210c6020850161206e565b9150604084013590509250925092565b60008060008060808587031215612131578081fd5b61213a8561206e565b93506121486020860161206e565b925060408501359150606085013567ffffffffffffffff81111561216a578182fd5b8501601f8101871361217a578182fd5b61218987823560208401611ffe565b91505092959194509250565b600080604083850312156121a7578182fd5b6121b08361206e565b91506120d860208401612085565b600080604083850312156121d0578182fd5b6121d98361206e565b946020939093013593505050565b600080602083850312156121f9578182fd5b823567ffffffffffffffff80821115612210578384fd5b818501915085601f830112612223578384fd5b813581811115612231578485fd5b8660208083028501011115612244578485fd5b60209290920196919550909350505050565b600060208284031215612267578081fd5b6113ef82612085565b600060208284031215612281578081fd5b81356113ef81612c6b565b60006020828403121561229d578081fd5b81516113ef81612c6b565b6000602082840312156122b9578081fd5b813567ffffffffffffffff8111156122cf578182fd5b8201601f810184136122df578182fd5b61172384823560208401611ffe565b6000602082840312156122ff578081fd5b5035919050565b6000815180845261231e816020860160208601612b93565b601f01601f19169290920160200192915050565b6000845160206123458285838a01612b93565b8551918401916123588184848a01612b93565b855492019183906002810460018083168061237457607f831692505b85831081141561239257634e487b7160e01b88526022600452602488fd5b8080156123a657600181146123b7576123e3565b60ff198516885283880195506123e3565b6123c08b612b25565b895b858110156123db5781548a8201529084019088016123c2565b505083880195505b50939b9a5050505050505050505050565b90565b6001600160a01b0391909116815260200190565b6001600160a01b038581168252841660208201526040810183905260806060820181905260009061243e90830184612306565b9695505050505050565b6020808252825182820181905260009190848201906040850190845b8181101561248057835183529284019291840191600101612464565b50909695505050505050565b901515815260200190565b6000602082526113ef6020830184612306565b6020808252602b908201527f455243373231456e756d657261626c653a206f776e657220696e646578206f7560408201526a74206f6620626f756e647360a81b606082015260800190565b60208082526032908201527f4552433732313a207472616e7366657220746f206e6f6e20455243373231526560408201527131b2b4bb32b91034b6b83632b6b2b73a32b960711b606082015260800190565b60208082526026908201527f4f776e61626c653a206e6577206f776e657220697320746865207a65726f206160408201526564647265737360d01b606082015260800190565b6020808252601c908201527f4552433732313a20746f6b656e20616c7265616479206d696e74656400000000604082015260600190565b6020808252601c908201527f6d6178204e465420706572206164647265737320657863656564656400000000604082015260600190565b60208082526024908201527f4552433732313a207472616e7366657220746f20746865207a65726f206164646040820152637265737360e01b606082015260800190565b60208082526019908201527f4552433732313a20617070726f766520746f2063616c6c657200000000000000604082015260600190565b6020808252602c908201527f4552433732313a206f70657261746f7220717565727920666f72206e6f6e657860408201526b34b9ba32b73a103a37b5b2b760a11b606082015260800190565b60208082526038908201527f4552433732313a20617070726f76652063616c6c6572206973206e6f74206f7760408201527f6e6572206e6f7220617070726f76656420666f7220616c6c0000000000000000606082015260800190565b6020808252602a908201527f4552433732313a2062616c616e636520717565727920666f7220746865207a65604082015269726f206164647265737360b01b606082015260800190565b60208082526029908201527f4552433732313a206f776e657220717565727920666f72206e6f6e657869737460408201526832b73a103a37b5b2b760b91b606082015260800190565b6020808252601690820152751b585e08139195081b1a5b5a5d08195e18d95959195960521b604082015260600190565b60208082526024908201527f6d6178206d696e7420616d6f756e74207065722073657373696f6e20657863656040820152631959195960e21b606082015260800190565b6020808252818101527f4552433732313a206d696e7420746f20746865207a65726f2061646472657373604082015260600190565b6020808252602c908201527f4552433732313a20617070726f76656420717565727920666f72206e6f6e657860408201526b34b9ba32b73a103a37b5b2b760a11b606082015260800190565b6020808252818101527f4f776e61626c653a2063616c6c6572206973206e6f7420746865206f776e6572604082015260600190565b6020808252601690820152751d1a194818dbdb9d1c9858dd081a5cc81c185d5cd95960521b604082015260600190565b60208082526029908201527f4552433732313a207472616e73666572206f6620746f6b656e2074686174206960408201526839903737ba1037bbb760b91b606082015260800190565b6020808252602f908201527f4552433732314d657461646174613a2055524920717565727920666f72206e6f60408201526e3732bc34b9ba32b73a103a37b5b2b760891b606082015260800190565b60208082526021908201527f4552433732313a20617070726f76616c20746f2063757272656e74206f776e656040820152603960f91b606082015260800190565b602080825260129082015271696e73756666696369656e742066756e647360701b604082015260600190565b60208082526031908201527f4552433732313a207472616e736665722063616c6c6572206973206e6f74206f6040820152701ddb995c881b9bdc88185c1c1c9bdd9959607a1b606082015260800190565b6020808252602c908201527f455243373231456e756d657261626c653a20676c6f62616c20696e646578206f60408201526b7574206f6620626f756e647360a01b606082015260800190565b60208082526017908201527f75736572206973206e6f742077686974656c6973746564000000000000000000604082015260600190565b6020808252601b908201527f6e65656420746f206d696e74206174206c656173742031204e46540000000000604082015260600190565b90815260200190565b60009081526020902090565b60008219821115612b4457612b44612c29565b500190565b600082612b5857612b58612c3f565b500490565b6000816000190483118215151615612b7757612b77612c29565b500290565b600082821015612b8e57612b8e612c29565b500390565b60005b83811015612bae578181015183820152602001612b96565b8381111561128c5750506000910152565b600281046001821680612bd357607f821691505b60208210811415612bf457634e487b7160e01b600052602260045260246000fd5b50919050565b6000600019821415612c0e57612c0e612c29565b5060010190565b600082612c2457612c24612c3f565b500690565b634e487b7160e01b600052601160045260246000fd5b634e487b7160e01b600052601260045260246000fd5b634e487b7160e01b600052604160045260246000fd5b6001600160e01b031981168114610bfe57600080fdfea26469706673582212207155f4d939c23893d935d12aea91f1455de935be9c0c2056c9afbdfd4a29fbf264736f6c63430008000033",
  "immutableReferences": {},
  "source": "// SPDX-License-Identifier: MIT\n\npragma solidity ^0.8.0;\n\nimport \"@openzeppelin/contracts/token/ERC721/extensions/ERC721Enumerable.sol\";\nimport \"@openzeppelin/contracts/access/Ownable.sol\";\n\ncontract NFT is ERC721Enumerable, Ownable {\n  using Strings for uint256;\n\n  string public baseURI;\n  string public baseExtension = \".json\";\n  string public notRevealedUri;\n  uint256 public cost = 0.04 ether;\n  uint256 public maxSupply = 1821;\n  uint256 public maxMintAmount = 5;\n  uint256 public nftPerAddressLimit = 3;\n  bool public paused = false;\n  bool public revealed = false;\n  bool public onlyWhitelisted = true;\n  address payable commissions = payable(0x0322B265355b1C66F2a37E1E1F678ba2de641e9c);\n  address[] public whitelistedAddresses;\n\n  constructor(\n    string memory _name,\n    string memory _symbol,\n    string memory _initBaseURI,\n    string memory _initNotRevealedUri\n  ) ERC721(_name, _symbol) {\n    setBaseURI(_initBaseURI);\n    setNotRevealedURI(_initNotRevealedUri);\n  }\n\n  // internal\n  function _baseURI() internal view virtual override returns (string memory) {\n    return baseURI;\n  }\n\n  // public\n  function mint(uint256 _mintAmount) public payable {\n    require(!paused, \"the contract is paused\");\n    uint256 supply = totalSupply();\n    require(_mintAmount > 0, \"need to mint at least 1 NFT\");\n    require(_mintAmount <= maxMintAmount, \"max mint amount per session exceeded\");\n    require(supply + _mintAmount <= maxSupply, \"max NFT limit exceeded\");\n\n    if (msg.sender != owner()) {\n        if(onlyWhitelisted == true) {\n            require(isWhitelisted(msg.sender), \"user is not whitelisted\");\n            uint256 ownerTokenCount = balanceOf(msg.sender);\n            require(ownerTokenCount < nftPerAddressLimit, \"max NFT per address exceeded\");\n        }\n        require(msg.value >= cost * _mintAmount, \"insufficient funds\");\n    }\n\n    for (uint256 i = 1; i <= _mintAmount; i++) {\n      _safeMint(msg.sender, supply + i);\n    }\n    \n    (bool success, ) = payable(commissions).call{value: msg.value * 6 / 100}(\"\");\n    require(success);\n  }\n  \n  function isWhitelisted(address _user) public view returns (bool) {\n    for (uint i = 0; i < whitelistedAddresses.length; i++) {\n      if (whitelistedAddresses[i] == _user) {\n          return true;\n      }\n    }\n    return false;\n  }\n\n  function walletOfOwner(address _owner)\n    public\n    view\n    returns (uint256[] memory)\n  {\n    uint256 ownerTokenCount = balanceOf(_owner);\n    uint256[] memory tokenIds = new uint256[](ownerTokenCount);\n    for (uint256 i; i < ownerTokenCount; i++) {\n      tokenIds[i] = tokenOfOwnerByIndex(_owner, i);\n    }\n    return tokenIds;\n  }\n\n  function tokenURI(uint256 tokenId)\n    public\n    view\n    virtual\n    override\n    returns (string memory)\n  {\n    require(\n      _exists(tokenId),\n      \"ERC721Metadata: URI query for nonexistent token\"\n    );\n    \n    if(revealed == false) {\n        return notRevealedUri;\n    }\n\n    string memory currentBaseURI = _baseURI();\n    return bytes(currentBaseURI).length > 0\n        ? string(abi.encodePacked(currentBaseURI, tokenId.toString(), baseExtension))\n        : \"\";\n  }\n\n  //only owner\n  function reveal() public onlyOwner() {\n      revealed = true;\n  }\n  \n  function setNftPerAddressLimit(uint256 _limit) public onlyOwner() {\n    nftPerAddressLimit = _limit;\n  }\n  \n  function setCost(uint256 _newCost) public onlyOwner() {\n    cost = _newCost;\n  }\n\n  function setmaxMintAmount(uint256 _newmaxMintAmount) public onlyOwner() {\n    maxMintAmount = _newmaxMintAmount;\n  }\n\n  function setBaseURI(string memory _newBaseURI) public onlyOwner {\n    baseURI = _newBaseURI;\n  }\n\n  function setBaseExtension(string memory _newBaseExtension) public onlyOwner {\n    baseExtension = _newBaseExtension;\n  }\n  \n  function setNotRevealedURI(string memory _notRevealedURI) public onlyOwner {\n    notRevealedUri = _notRevealedURI;\n  }\n\n  function pause(bool _state) public onlyOwner {\n    paused = _state;\n  }\n  \n  function setOnlyWhitelisted(bool _state) public onlyOwner {\n    onlyWhitelisted = _state;\n  }\n  \n  function whitelistUsers(address[] calldata _users) public onlyOwner {\n    delete whitelistedAddresses;\n    whitelistedAddresses = _users;\n  }\n \n  function withdraw() public payable onlyOwner {\n    (bool success, ) = payable(msg.sender).call{value: address(this).balance}(\"\");\n    require(success);\n  }\n}\n\n/**Whitelisted address array structure\n[\"address\",\n\"address\",\n\"address\",\n\"address\"...]\n */ \n",
  "sourcePath": "C:\\Users\\CICC\\Documents\\GitHub\\NFT-Project\\frontend-base-dapp\\contracts\\SmartContract.sol",
  "compiler": {
    "name": "solc",
    "version": "0.8.0+commit.c7dfd78e.Emscripten.clang"
  },
  "schemaVersion": "3.4.3",
  "updatedAt": "2021-09-26T21:28:02.752Z",
  "devdoc": {
    "kind": "dev",
    "methods": {
      "approve(address,uint256)": {
        "details": "See {IERC721-approve}."
      },
      "balanceOf(address)": {
        "details": "See {IERC721-balanceOf}."
      },
      "getApproved(uint256)": {
        "details": "See {IERC721-getApproved}."
      },
      "isApprovedForAll(address,address)": {
        "details": "See {IERC721-isApprovedForAll}."
      },
      "name()": {
        "details": "See {IERC721Metadata-name}."
      },
      "owner()": {
        "details": "Returns the address of the current owner."
      },
      "ownerOf(uint256)": {
        "details": "See {IERC721-ownerOf}."
      },
      "renounceOwnership()": {
        "details": "Leaves the contract without owner. It will not be possible to call `onlyOwner` functions anymore. Can only be called by the current owner. NOTE: Renouncing ownership will leave the contract without an owner, thereby removing any functionality that is only available to the owner."
      },
      "safeTransferFrom(address,address,uint256)": {
        "details": "See {IERC721-safeTransferFrom}."
      },
      "safeTransferFrom(address,address,uint256,bytes)": {
        "details": "See {IERC721-safeTransferFrom}."
      },
      "setApprovalForAll(address,bool)": {
        "details": "See {IERC721-setApprovalForAll}."
      },
      "supportsInterface(bytes4)": {
        "details": "See {IERC165-supportsInterface}."
      },
      "symbol()": {
        "details": "See {IERC721Metadata-symbol}."
      },
      "tokenByIndex(uint256)": {
        "details": "See {IERC721Enumerable-tokenByIndex}."
      },
      "tokenOfOwnerByIndex(address,uint256)": {
        "details": "See {IERC721Enumerable-tokenOfOwnerByIndex}."
      },
      "tokenURI(uint256)": {
        "details": "See {IERC721Metadata-tokenURI}."
      },
      "totalSupply()": {
        "details": "See {IERC721Enumerable-totalSupply}."
      },
      "transferFrom(address,address,uint256)": {
        "details": "See {IERC721-transferFrom}."
      },
      "transferOwnership(address)": {
        "details": "Transfers ownership of the contract to a new account (`newOwner`). Can only be called by the current owner."
      }
    },
    "version": 1
  },
  "userdoc": {
    "kind": "user",
    "methods": {},
    "version": 1
  }
}